{
  "_format": "hh-sol-artifact-1",
  "contractName": "OracleMarketplace",
  "sourceName": "contracts/OracleMarketplace.sol",
  "abi": [
    {
      "inputs": [
        {
          "internalType": "address",
          "name": "_operator",
          "type": "address"
        }
      ],
      "stateMutability": "nonpayable",
      "type": "constructor"
    },
    {
      "anonymous": false,
      "inputs": [
        {
          "indexed": false,
          "internalType": "address",
          "name": "newOwner",
          "type": "address"
        }
      ],
      "name": "OperatorChanged",
      "type": "event"
    },
    {
      "anonymous": false,
      "inputs": [
        {
          "indexed": true,
          "internalType": "address",
          "name": "previousOwner",
          "type": "address"
        },
        {
          "indexed": true,
          "internalType": "address",
          "name": "newOwner",
          "type": "address"
        }
      ],
      "name": "OwnershipTransferred",
      "type": "event"
    },
    {
      "anonymous": false,
      "inputs": [
        {
          "indexed": true,
          "internalType": "uint256",
          "name": "questionId",
          "type": "uint256"
        },
        {
          "indexed": true,
          "internalType": "uint256",
          "name": "oracleId",
          "type": "uint256"
        },
        {
          "indexed": false,
          "internalType": "string",
          "name": "answer",
          "type": "string"
        },
        {
          "indexed": false,
          "internalType": "uint256",
          "name": "updatedAt",
          "type": "uint256"
        }
      ],
      "name": "QuestionUpdated",
      "type": "event"
    },
    {
      "anonymous": false,
      "inputs": [
        {
          "indexed": false,
          "internalType": "address",
          "name": "signer",
          "type": "address"
        }
      ],
      "name": "SignatureVerificationFailed",
      "type": "event"
    },
    {
      "anonymous": false,
      "inputs": [
        {
          "indexed": true,
          "internalType": "address",
          "name": "user",
          "type": "address"
        },
        {
          "indexed": true,
          "internalType": "address",
          "name": "userContract",
          "type": "address"
        },
        {
          "indexed": true,
          "internalType": "uint256",
          "name": "oracleId",
          "type": "uint256"
        },
        {
          "indexed": false,
          "internalType": "uint256",
          "name": "expire",
          "type": "uint256"
        }
      ],
      "name": "Subscribed",
      "type": "event"
    },
    {
      "inputs": [
        {
          "internalType": "uint256",
          "name": "questionId",
          "type": "uint256"
        }
      ],
      "name": "getAnswer",
      "outputs": [
        {
          "internalType": "string",
          "name": "",
          "type": "string"
        }
      ],
      "stateMutability": "view",
      "type": "function"
    },
    {
      "inputs": [
        {
          "internalType": "uint256",
          "name": "questionId",
          "type": "uint256"
        },
        {
          "internalType": "uint256",
          "name": "maxAge",
          "type": "uint256"
        }
      ],
      "name": "getAnswerNoOlderThan",
      "outputs": [
        {
          "internalType": "string",
          "name": "",
          "type": "string"
        }
      ],
      "stateMutability": "view",
      "type": "function"
    },
    {
      "inputs": [
        {
          "internalType": "bytes32",
          "name": "_messageHash",
          "type": "bytes32"
        }
      ],
      "name": "getEthSignedMessageHash",
      "outputs": [
        {
          "internalType": "bytes32",
          "name": "",
          "type": "bytes32"
        }
      ],
      "stateMutability": "pure",
      "type": "function"
    },
    {
      "inputs": [],
      "name": "operator",
      "outputs": [
        {
          "internalType": "address",
          "name": "",
          "type": "address"
        }
      ],
      "stateMutability": "view",
      "type": "function"
    },
    {
      "inputs": [],
      "name": "owner",
      "outputs": [
        {
          "internalType": "address",
          "name": "",
          "type": "address"
        }
      ],
      "stateMutability": "view",
      "type": "function"
    },
    {
      "inputs": [
        {
          "internalType": "bytes32",
          "name": "_ethSignedMessageHash",
          "type": "bytes32"
        },
        {
          "internalType": "bytes",
          "name": "_signature",
          "type": "bytes"
        }
      ],
      "name": "recoverSigner",
      "outputs": [
        {
          "internalType": "address",
          "name": "",
          "type": "address"
        }
      ],
      "stateMutability": "pure",
      "type": "function"
    },
    {
      "inputs": [],
      "name": "renounceOwnership",
      "outputs": [],
      "stateMutability": "nonpayable",
      "type": "function"
    },
    {
      "inputs": [
        {
          "internalType": "address",
          "name": "newOperator",
          "type": "address"
        }
      ],
      "name": "setOperator",
      "outputs": [],
      "stateMutability": "nonpayable",
      "type": "function"
    },
    {
      "inputs": [
        {
          "internalType": "bytes",
          "name": "_sig",
          "type": "bytes"
        }
      ],
      "name": "splitSignature",
      "outputs": [
        {
          "internalType": "bytes32",
          "name": "r",
          "type": "bytes32"
        },
        {
          "internalType": "bytes32",
          "name": "s",
          "type": "bytes32"
        },
        {
          "internalType": "uint8",
          "name": "v",
          "type": "uint8"
        }
      ],
      "stateMutability": "pure",
      "type": "function"
    },
    {
      "inputs": [
        {
          "internalType": "uint256",
          "name": "_oracleId",
          "type": "uint256"
        },
        {
          "internalType": "address",
          "name": "userContract",
          "type": "address"
        },
        {
          "internalType": "uint256",
          "name": "price",
          "type": "uint256"
        },
        {
          "internalType": "uint256",
          "name": "expire",
          "type": "uint256"
        },
        {
          "internalType": "address payable",
          "name": "owner",
          "type": "address"
        },
        {
          "internalType": "bytes",
          "name": "signature",
          "type": "bytes"
        }
      ],
      "name": "subscribe",
      "outputs": [],
      "stateMutability": "payable",
      "type": "function"
    },
    {
      "inputs": [
        {
          "internalType": "address",
          "name": "",
          "type": "address"
        },
        {
          "internalType": "uint256",
          "name": "",
          "type": "uint256"
        }
      ],
      "name": "subscriptionExpiration",
      "outputs": [
        {
          "internalType": "uint256",
          "name": "",
          "type": "uint256"
        }
      ],
      "stateMutability": "view",
      "type": "function"
    },
    {
      "inputs": [
        {
          "internalType": "address",
          "name": "newOwner",
          "type": "address"
        }
      ],
      "name": "transferOwnership",
      "outputs": [],
      "stateMutability": "nonpayable",
      "type": "function"
    },
    {
      "inputs": [
        {
          "internalType": "bytes",
          "name": "encodedData",
          "type": "bytes"
        }
      ],
      "name": "updateFeeds",
      "outputs": [],
      "stateMutability": "nonpayable",
      "type": "function"
    },
    {
      "inputs": [
        {
          "internalType": "bytes32",
          "name": "_messageHash",
          "type": "bytes32"
        },
        {
          "internalType": "bytes",
          "name": "_signature",
          "type": "bytes"
        }
      ],
      "name": "verifySignature",
      "outputs": [],
      "stateMutability": "view",
      "type": "function"
    }
  ],
  "bytecode": "0x608060405234801561001057600080fd5b506040516112bc3803806112bc83398101604081905261002f916100ad565b6100383361005d565b600380546001600160a01b0319166001600160a01b03929092169190911790556100dd565b600080546001600160a01b038381166001600160a01b0319831681178455604051919092169283917f8be0079c531659141344cd1fd0a4f28419497f9722a3daafe3b4186f6b6457e09190a35050565b6000602082840312156100bf57600080fd5b81516001600160a01b03811681146100d657600080fd5b9392505050565b6111d0806100ec6000396000f3fe6080604052600436106100dd5760003560e01c8063b3ab15fb1161007f578063daca6f7811610059578063daca6f7814610252578063eb9746a814610272578063f2fde38b146102b8578063fa540801146102d857600080fd5b8063b3ab15fb146101ff578063b5ab58dc1461021f578063c34ab4db1461023f57600080fd5b80638da5cb5b116100bb5780638da5cb5b1461016357806397aba7f914610181578063a7bb5803146101a1578063af53fc73146101df57600080fd5b8063570ca735146100e2578063715018a61461011f5780637a18689114610136575b600080fd5b3480156100ee57600080fd5b50600354610102906001600160a01b031681565b6040516001600160a01b0390911681526020015b60405180910390f35b34801561012b57600080fd5b506101346102f8565b005b34801561014257600080fd5b50610156610151366004610c3c565b61030c565b6040516101169190610cae565b34801561016f57600080fd5b506000546001600160a01b0316610102565b34801561018d57600080fd5b5061010261019c366004610d8d565b61044d565b3480156101ad57600080fd5b506101c16101bc366004610dd4565b6104cc565b60408051938452602084019290925260ff1690820152606001610116565b3480156101eb57600080fd5b506101346101fa366004610dd4565b610540565b34801561020b57600080fd5b5061013461021a366004610e1e565b610690565b34801561022b57600080fd5b5061015661023a366004610e3b565b6106ec565b61013461024d366004610e54565b6106f8565b34801561025e57600080fd5b5061013461026d366004610d8d565b61089f565b34801561027e57600080fd5b506102aa61028d366004610ed2565b600260209081526000928352604080842090915290825290205481565b604051908152602001610116565b3480156102c457600080fd5b506101346102d3366004610e1e565b61091e565b3480156102e457600080fd5b506102aa6102f3366004610e3b565b610997565b6103006109ea565b61030a6000610a44565b565b6060600060016000858152602001908152602001600020604051806080016040529081600082015481526020016001820154815260200160028201805461035290610efe565b80601f016020809104026020016040519081016040528092919081815260200182805461037e90610efe565b80156103cb5780601f106103a0576101008083540402835291602001916103cb565b820191906000526020600020905b8154815290600101906020018083116103ae57829003601f168201915b50505050508152602001600382015481525050905082426103ec9190610f38565b8160600151116104395760405162461bcd60e51b8152602060048201526013602482015272145d595cdd1a5bdb881a5cc81d1bdbc81bdb19606a1b60448201526064015b60405180910390fd5b6104438433610a94565b9150505b92915050565b60008060008061045c856104cc565b6040805160008152602081018083528b905260ff8316918101919091526060810184905260808101839052929550909350915060019060a0016020604051602081039080840390855afa1580156104b7573d6000803e3d6000fd5b5050604051601f190151979650505050505050565b600080600083516041146105225760405162461bcd60e51b815260206004820152601860248201527f496e76616c6964207369676e6174757265206c656e67746800000000000000006044820152606401610430565b50505060208101516040820151606090920151909260009190911a90565b60008060008060008580602001905181019061055c9190610f89565b9450945094509450945060008585858560405160200161057f9493929190611035565b6040516020818303038152906040528051906020012090506105a1818361089f565b600086815260016020526040812054900361061b576040805160808101825287815260208082018881528284018881526060840188905260008b815260019384905294909420835181559051918101919091559151909190600282019061060890826110b8565b506060820151816003015590505061064c565b600086815260016020526040902060020161063685826110b8565b5060008681526001602052604090206003018390555b84867ffc78cb0e4658e4c22cc4c0713cd97bafd656b4a3bffc96d9a7a231c9a8301fbf868660405161067f929190611178565b60405180910390a350505050505050565b6106986109ea565b600380546001600160a01b0319166001600160a01b0383169081179091556040519081527f4721129e0e676ed6a92909bb24e853ccdd63ad72280cc2e974e38e480e0e6e549060200160405180910390a150565b60606104478233610a94565b6040805160208082018990526bffffffffffffffffffffffff19606089811b821684860152605484018990526074840188905286901b1660948301528251808303608801815260a89092019092528051910120610755818361089f565b8434146107a45760405162461bcd60e51b815260206004820152601860248201527f496e636f7272656374207061796d656e7420616d6f756e7400000000000000006044820152606401610430565b6000836001600160a01b03163460405160006040518083038185875af1925050503d80600081146107f1576040519150601f19603f3d011682016040523d82523d6000602084013e6107f6565b606091505b50509050806108395760405162461bcd60e51b815260206004820152600f60248201526e151c985b9cd9995c8819985a5b1959608a1b6044820152606401610430565b6001600160a01b03871660008181526002602090815260408083208c845282529182902088905590518781528a929133917f7f167950d6405e671782a5bac6c60bd0453dacbcc537d8b456f2d78b1e1751f6910160405180910390a45050505050505050565b60006108aa83610997565b905060006108b8828461044d565b6003549091506001600160a01b038083169116146109185760405162461bcd60e51b815260206004820152601d60248201527f5369676e617475726520766572696669636174696f6e206661696c65640000006044820152606401610430565b50505050565b6109266109ea565b6001600160a01b03811661098b5760405162461bcd60e51b815260206004820152602660248201527f4f776e61626c653a206e6577206f776e657220697320746865207a65726f206160448201526564647265737360d01b6064820152608401610430565b61099481610a44565b50565b6040517f19457468657265756d205369676e6564204d6573736167653a0a3332000000006020820152603c8101829052600090605c01604051602081830303815290604052805190602001209050919050565b6000546001600160a01b0316331461030a5760405162461bcd60e51b815260206004820181905260248201527f4f776e61626c653a2063616c6c6572206973206e6f7420746865206f776e65726044820152606401610430565b600080546001600160a01b038381166001600160a01b0319831681178455604051919092169283917f8be0079c531659141344cd1fd0a4f28419497f9722a3daafe3b4186f6b6457e09190a35050565b60606000600160008581526020019081526020016000206040518060800160405290816000820154815260200160018201548152602001600282018054610ada90610efe565b80601f0160208091040260200160405190810160405280929190818152602001828054610b0690610efe565b8015610b535780601f10610b2857610100808354040283529160200191610b53565b820191906000526020600020905b815481529060010190602001808311610b3657829003601f168201915b5050505050815260200160038201548152505090508060000151600003610bbc5760405162461bcd60e51b815260206004820152601760248201527f5175657374696f6e20646f6573206e6f742065786973740000000000000000006044820152606401610430565b6001600160a01b03831660009081526002602090815260408083208483015184529091529020544210610c315760405162461bcd60e51b815260206004820181905260248201527f537562736372697074696f6e207265717569726564206f7220657870697265646044820152606401610430565b604001519392505050565b60008060408385031215610c4f57600080fd5b50508035926020909101359150565b60005b83811015610c79578181015183820152602001610c61565b50506000910152565b60008151808452610c9a816020860160208601610c5e565b601f01601f19169290920160200192915050565b602081526000610cc16020830184610c82565b9392505050565b634e487b7160e01b600052604160045260246000fd5b604051601f8201601f1916810167ffffffffffffffff81118282101715610d0757610d07610cc8565b604052919050565b600067ffffffffffffffff821115610d2957610d29610cc8565b50601f01601f191660200190565b600082601f830112610d4857600080fd5b8135610d5b610d5682610d0f565b610cde565b818152846020838601011115610d7057600080fd5b816020850160208301376000918101602001919091529392505050565b60008060408385031215610da057600080fd5b82359150602083013567ffffffffffffffff811115610dbe57600080fd5b610dca85828601610d37565b9150509250929050565b600060208284031215610de657600080fd5b813567ffffffffffffffff811115610dfd57600080fd5b61044384828501610d37565b6001600160a01b038116811461099457600080fd5b600060208284031215610e3057600080fd5b8135610cc181610e09565b600060208284031215610e4d57600080fd5b5035919050565b60008060008060008060c08789031215610e6d57600080fd5b863595506020870135610e7f81610e09565b945060408701359350606087013592506080870135610e9d81610e09565b915060a087013567ffffffffffffffff811115610eb957600080fd5b610ec589828a01610d37565b9150509295509295509295565b60008060408385031215610ee557600080fd5b8235610ef081610e09565b946020939093013593505050565b600181811c90821680610f1257607f821691505b602082108103610f3257634e487b7160e01b600052602260045260246000fd5b50919050565b8181038181111561044757634e487b7160e01b600052601160045260246000fd5b6000610f67610d5684610d0f565b9050828152838383011115610f7b57600080fd5b610cc1836020830184610c5e565b600080600080600060a08688031215610fa157600080fd5b8551945060208601519350604086015167ffffffffffffffff80821115610fc757600080fd5b818801915088601f830112610fdb57600080fd5b610fea89835160208501610f59565b945060608801519350608088015191508082111561100757600080fd5b508601601f8101881361101957600080fd5b61102888825160208401610f59565b9150509295509295909350565b84815283602082015260008351611053816040850160208801610c5e565b6040920191820192909252606001949350505050565b601f8211156110b357600081815260208120601f850160051c810160208610156110905750805b601f850160051c820191505b818110156110af5782815560010161109c565b5050505b505050565b815167ffffffffffffffff8111156110d2576110d2610cc8565b6110e6816110e08454610efe565b84611069565b602080601f83116001811461111b57600084156111035750858301515b600019600386901b1c1916600185901b1785556110af565b600085815260208120601f198616915b8281101561114a5788860151825594840194600190910190840161112b565b50858210156111685787850151600019600388901b60f8161c191681555b5050505050600190811b01905550565b60408152600061118b6040830185610c82565b9050826020830152939250505056fea2646970667358221220e0a69352ada129267596eb9116c3d23d902a074977969a60fac7abaecd31ed3464736f6c63430008100033",
  "linkReferences": {},
  "deployedLinkReferences": {}
}