{
  "_format": "hh-sol-artifact-1",
  "contractName": "OracleMarketplace",
  "sourceName": "contracts/marketplace.sol",
  "abi": [
    {
      "anonymous": false,
      "inputs": [
        {
          "indexed": true,
          "internalType": "uint256",
          "name": "oracleId",
          "type": "uint256"
        },
        {
          "indexed": false,
          "internalType": "string",
          "name": "name",
          "type": "string"
        },
        {
          "indexed": false,
          "internalType": "string",
          "name": "description",
          "type": "string"
        },
        {
          "indexed": false,
          "internalType": "uint256",
          "name": "subscriptionPrice",
          "type": "uint256"
        },
        {
          "indexed": true,
          "internalType": "address",
          "name": "owner",
          "type": "address"
        }
      ],
      "name": "OracleCreated",
      "type": "event"
    },
    {
      "anonymous": false,
      "inputs": [
        {
          "indexed": true,
          "internalType": "uint256",
          "name": "questionId",
          "type": "uint256"
        },
        {
          "indexed": true,
          "internalType": "uint256",
          "name": "oracleId",
          "type": "uint256"
        },
        {
          "indexed": false,
          "internalType": "string",
          "name": "question",
          "type": "string"
        },
        {
          "indexed": false,
          "internalType": "string",
          "name": "answer",
          "type": "string"
        }
      ],
      "name": "QuestionAdded",
      "type": "event"
    },
    {
      "anonymous": false,
      "inputs": [
        {
          "indexed": true,
          "internalType": "uint256",
          "name": "questionId",
          "type": "uint256"
        },
        {
          "indexed": true,
          "internalType": "uint256",
          "name": "oracleId",
          "type": "uint256"
        },
        {
          "indexed": false,
          "internalType": "string",
          "name": "question",
          "type": "string"
        },
        {
          "indexed": false,
          "internalType": "string",
          "name": "answer",
          "type": "string"
        }
      ],
      "name": "QuestionUpdated",
      "type": "event"
    },
    {
      "anonymous": false,
      "inputs": [
        {
          "indexed": true,
          "internalType": "address",
          "name": "user",
          "type": "address"
        },
        {
          "indexed": true,
          "internalType": "address",
          "name": "userContract",
          "type": "address"
        },
        {
          "indexed": true,
          "internalType": "uint256",
          "name": "oracleId",
          "type": "uint256"
        },
        {
          "indexed": false,
          "internalType": "uint256",
          "name": "expire",
          "type": "uint256"
        }
      ],
      "name": "Subscribed",
      "type": "event"
    },
    {
      "inputs": [
        {
          "internalType": "uint256",
          "name": "_oracleId",
          "type": "uint256"
        },
        {
          "internalType": "string",
          "name": "_question",
          "type": "string"
        },
        {
          "internalType": "string",
          "name": "_answer",
          "type": "string"
        }
      ],
      "name": "addQuestion",
      "outputs": [],
      "stateMutability": "nonpayable",
      "type": "function"
    },
    {
      "inputs": [
        {
          "internalType": "string",
          "name": "_name",
          "type": "string"
        },
        {
          "internalType": "string",
          "name": "_description",
          "type": "string"
        },
        {
          "internalType": "uint256",
          "name": "_subscriptionPrice",
          "type": "uint256"
        }
      ],
      "name": "createOracle",
      "outputs": [],
      "stateMutability": "nonpayable",
      "type": "function"
    },
    {
      "inputs": [
        {
          "internalType": "uint256",
          "name": "_questionId",
          "type": "uint256"
        }
      ],
      "name": "getQuestion",
      "outputs": [
        {
          "internalType": "string",
          "name": "answer",
          "type": "string"
        }
      ],
      "stateMutability": "view",
      "type": "function"
    },
    {
      "inputs": [
        {
          "internalType": "uint256",
          "name": "_oracleId",
          "type": "uint256"
        }
      ],
      "name": "getQuestions",
      "outputs": [
        {
          "components": [
            {
              "internalType": "uint256",
              "name": "id",
              "type": "uint256"
            },
            {
              "internalType": "uint256",
              "name": "oracleId",
              "type": "uint256"
            },
            {
              "internalType": "string",
              "name": "question",
              "type": "string"
            },
            {
              "internalType": "string",
              "name": "answer",
              "type": "string"
            }
          ],
          "internalType": "struct OracleMarketplace.Question[]",
          "name": "",
          "type": "tuple[]"
        }
      ],
      "stateMutability": "view",
      "type": "function"
    },
    {
      "inputs": [
        {
          "internalType": "uint256",
          "name": "",
          "type": "uint256"
        },
        {
          "internalType": "uint256",
          "name": "",
          "type": "uint256"
        }
      ],
      "name": "oracleQuestions",
      "outputs": [
        {
          "internalType": "uint256",
          "name": "",
          "type": "uint256"
        }
      ],
      "stateMutability": "view",
      "type": "function"
    },
    {
      "inputs": [
        {
          "internalType": "uint256",
          "name": "",
          "type": "uint256"
        }
      ],
      "name": "oracles",
      "outputs": [
        {
          "internalType": "uint256",
          "name": "id",
          "type": "uint256"
        },
        {
          "internalType": "string",
          "name": "name",
          "type": "string"
        },
        {
          "internalType": "string",
          "name": "description",
          "type": "string"
        },
        {
          "internalType": "uint256",
          "name": "subscriptionPrice",
          "type": "uint256"
        },
        {
          "internalType": "address",
          "name": "owner",
          "type": "address"
        }
      ],
      "stateMutability": "view",
      "type": "function"
    },
    {
      "inputs": [
        {
          "internalType": "uint256",
          "name": "_oracleId",
          "type": "uint256"
        },
        {
          "internalType": "address",
          "name": "userContract",
          "type": "address"
        }
      ],
      "name": "subscribe",
      "outputs": [],
      "stateMutability": "payable",
      "type": "function"
    },
    {
      "inputs": [
        {
          "internalType": "address",
          "name": "",
          "type": "address"
        },
        {
          "internalType": "uint256",
          "name": "",
          "type": "uint256"
        }
      ],
      "name": "subscriptionExpiration",
      "outputs": [
        {
          "internalType": "uint256",
          "name": "",
          "type": "uint256"
        }
      ],
      "stateMutability": "view",
      "type": "function"
    },
    {
      "inputs": [
        {
          "internalType": "uint256",
          "name": "_oracleId",
          "type": "uint256"
        },
        {
          "internalType": "uint256",
          "name": "_questionId",
          "type": "uint256"
        },
        {
          "internalType": "string",
          "name": "_answer",
          "type": "string"
        }
      ],
      "name": "updateQuestion",
      "outputs": [],
      "stateMutability": "nonpayable",
      "type": "function"
    }
  ],
  "bytecode": "0x6080604052348015600f57600080fd5b506124928061001f6000396000f3fe6080604052600436106100865760003560e01c80638c7dcb0f116100595780638c7dcb0f14610162578063ad3d4aa91461018b578063ae322986146101b4578063db88176f146101dd578063eb9746a81461021a57610086565b80630ee746091461008b57806350bce775146100c857806359e6951d146101055780635b69a7d814610121575b600080fd5b34801561009757600080fd5b506100b260048036038101906100ad919061133f565b610257565b6040516100bf919061138e565b60405180910390f35b3480156100d457600080fd5b506100ef60048036038101906100ea91906113a9565b610288565b6040516100fc91906115a1565b60405180910390f35b61011f600480360381019061011a9190611621565b610569565b005b34801561012d57600080fd5b50610148600480360381019061014391906113a9565b610999565b6040516101599594939291906116ba565b60405180910390f35b34801561016e57600080fd5b5061018960048036038101906101849190611850565b610aff565b005b34801561019757600080fd5b506101b260048036038101906101ad91906118db565b610d18565b005b3480156101c057600080fd5b506101db60048036038101906101d6919061194a565b610e71565b005b3480156101e957600080fd5b5061020460048036038101906101ff91906113a9565b61106c565b60405161021191906119d5565b60405180910390f35b34801561022657600080fd5b50610241600480360381019061023c91906119f7565b6112a8565b60405161024e919061138e565b60405180910390f35b6004602052816000526040600020818154811061027357600080fd5b90600052602060002001600091509150505481565b60603273ffffffffffffffffffffffffffffffffffffffff163373ffffffffffffffffffffffffffffffffffffffff16146102f8576040517f08c379a00000000000000000000000000000000000000000000000000000000081526004016102ef90611a83565b60405180910390fd5b60006004600084815260200190815260200160002080548060200260200160405190810160405280929190818152602001828054801561035757602002820191906000526020600020905b815481526020019060010190808311610343575b505050505090506000815167ffffffffffffffff81111561037b5761037a611725565b5b6040519080825280602002602001820160405280156103b457816020015b6103a16112cd565b8152602001906001900390816103995790505b50905060005b825181101561055e57600360008483815181106103da576103d9611aa3565b5b60200260200101518152602001908152602001600020604051806080016040529081600082015481526020016001820154815260200160028201805461041f90611b01565b80601f016020809104026020016040519081016040528092919081815260200182805461044b90611b01565b80156104985780601f1061046d57610100808354040283529160200191610498565b820191906000526020600020905b81548152906001019060200180831161047b57829003601f168201915b505050505081526020016003820180546104b190611b01565b80601f01602080910402602001604051908101604052809291908181526020018280546104dd90611b01565b801561052a5780601f106104ff5761010080835404028352916020019161052a565b820191906000526020600020905b81548152906001019060200180831161050d57829003601f168201915b50505050508152505082828151811061054657610545611aa3565b5b602002602001018190525080806001019150506103ba565b508092505050919050565b3273ffffffffffffffffffffffffffffffffffffffff163373ffffffffffffffffffffffffffffffffffffffff16146105d7576040517f08c379a00000000000000000000000000000000000000000000000000000000081526004016105ce90611a83565b60405180910390fd5b6000600260008481526020019081526020016000206040518060a00160405290816000820154815260200160018201805461061190611b01565b80601f016020809104026020016040519081016040528092919081815260200182805461063d90611b01565b801561068a5780601f1061065f5761010080835404028352916020019161068a565b820191906000526020600020905b81548152906001019060200180831161066d57829003601f168201915b505050505081526020016002820180546106a390611b01565b80601f01602080910402602001604051908101604052809291908181526020018280546106cf90611b01565b801561071c5780601f106106f15761010080835404028352916020019161071c565b820191906000526020600020905b8154815290600101906020018083116106ff57829003601f168201915b50505050508152602001600382015481526020016004820160009054906101000a900473ffffffffffffffffffffffffffffffffffffffff1673ffffffffffffffffffffffffffffffffffffffff1673ffffffffffffffffffffffffffffffffffffffff1681525050905060008160000151036107ce576040517f08c379a00000000000000000000000000000000000000000000000000000000081526004016107c590611b7e565b60405180910390fd5b80606001513414610814576040517f08c379a000000000000000000000000000000000000000000000000000000000815260040161080b90611bea565b60405180910390fd5b600062278d00426108259190611c39565b905080600560008573ffffffffffffffffffffffffffffffffffffffff1673ffffffffffffffffffffffffffffffffffffffff1681526020019081526020016000206000868152602001908152602001600020819055506000826080015173ffffffffffffffffffffffffffffffffffffffff16346040516108a690611c9e565b60006040518083038185875af1925050503d80600081146108e3576040519150601f19603f3d011682016040523d82523d6000602084013e6108e8565b606091505b505090508061092c576040517f08c379a000000000000000000000000000000000000000000000000000000000815260040161092390611cff565b60405180910390fd5b848473ffffffffffffffffffffffffffffffffffffffff163373ffffffffffffffffffffffffffffffffffffffff167f7f167950d6405e671782a5bac6c60bd0453dacbcc537d8b456f2d78b1e1751f68560405161098a919061138e565b60405180910390a45050505050565b60026020528060005260406000206000915090508060000154908060010180546109c290611b01565b80601f01602080910402602001604051908101604052809291908181526020018280546109ee90611b01565b8015610a3b5780601f10610a1057610100808354040283529160200191610a3b565b820191906000526020600020905b815481529060010190602001808311610a1e57829003601f168201915b505050505090806002018054610a5090611b01565b80601f0160208091040260200160405190810160405280929190818152602001828054610a7c90611b01565b8015610ac95780601f10610a9e57610100808354040283529160200191610ac9565b820191906000526020600020905b815481529060010190602001808311610aac57829003601f168201915b5050505050908060030154908060040160009054906101000a900473ffffffffffffffffffffffffffffffffffffffff16905085565b6000835111610b43576040517f08c379a0000000000000000000000000000000000000000000000000000000008152600401610b3a90611d6b565b60405180910390fd5b6000825111610b87576040517f08c379a0000000000000000000000000000000000000000000000000000000008152600401610b7e90611dd7565b60405180910390fd5b60008111610bca576040517f08c379a0000000000000000000000000000000000000000000000000000000008152600401610bc190611e69565b60405180910390fd5b600080815480929190610bdc90611e89565b91905055506040518060a0016040528060005481526020018481526020018381526020018281526020013373ffffffffffffffffffffffffffffffffffffffff168152506002600080548152602001908152602001600020600082015181600001556020820151816001019081610c53919061207d565b506040820151816002019081610c69919061207d565b506060820151816003015560808201518160040160006101000a81548173ffffffffffffffffffffffffffffffffffffffff021916908373ffffffffffffffffffffffffffffffffffffffff1602179055509050503373ffffffffffffffffffffffffffffffffffffffff166000547fe063fc7c180facba7845389f316a58b85823f5e6a82062392d0a0dae69fa1532858585604051610d0b9392919061214f565b60405180910390a3505050565b823373ffffffffffffffffffffffffffffffffffffffff166002600083815260200190815260200160002060040160009054906101000a900473ffffffffffffffffffffffffffffffffffffffff1673ffffffffffffffffffffffffffffffffffffffff1614610dbd576040517f08c379a0000000000000000000000000000000000000000000000000000000008152600401610db4906121e0565b60405180910390fd5b600060036000858152602001908152602001600020905084816001015414610e1a576040517f08c379a0000000000000000000000000000000000000000000000000000000008152600401610e1190612272565b60405180910390fd5b82816003019081610e2b919061207d565b5084847f6e2bfa1804c338b8465aefee50585a8b2ff64fc87ba4d1a5010938e9df337c928360020186604051610e62929190612316565b60405180910390a35050505050565b823373ffffffffffffffffffffffffffffffffffffffff166002600083815260200190815260200160002060040160009054906101000a900473ffffffffffffffffffffffffffffffffffffffff1673ffffffffffffffffffffffffffffffffffffffff1614610f16576040517f08c379a0000000000000000000000000000000000000000000000000000000008152600401610f0d906121e0565b60405180910390fd5b6000835111610f5a576040517f08c379a0000000000000000000000000000000000000000000000000000000008152600401610f5190612399565b60405180910390fd5b60016000815480929190610f6d90611e89565b9190505550604051806080016040528060015481526020018581526020018481526020018381525060036000600154815260200190815260200160002060008201518160000155602082015181600101556040820151816002019081610fd3919061207d565b506060820151816003019081610fe9919061207d565b50905050600460008581526020019081526020016000206001549080600181540180825580915050600190039060005260206000200160009091909190915055836001547fdfbdc701716093489160efad8af1086f025399fd97b55c00d9021ecada506dac858560405161105e9291906123b9565b60405180910390a350505050565b606060006003600084815260200190815260200160002060405180608001604052908160008201548152602001600182015481526020016002820180546110b290611b01565b80601f01602080910402602001604051908101604052809291908181526020018280546110de90611b01565b801561112b5780601f106111005761010080835404028352916020019161112b565b820191906000526020600020905b81548152906001019060200180831161110e57829003601f168201915b5050505050815260200160038201805461114490611b01565b80601f016020809104026020016040519081016040528092919081815260200182805461117090611b01565b80156111bd5780601f10611192576101008083540402835291602001916111bd565b820191906000526020600020905b8154815290600101906020018083116111a057829003601f168201915b505050505081525050905042600560003373ffffffffffffffffffffffffffffffffffffffff1673ffffffffffffffffffffffffffffffffffffffff1681526020019081526020016000206000836020015181526020019081526020016000205410158061125657503273ffffffffffffffffffffffffffffffffffffffff163373ffffffffffffffffffffffffffffffffffffffff16145b156112685780606001519150506112a3565b6040517f08c379a000000000000000000000000000000000000000000000000000000000815260040161129a9061243c565b60405180910390fd5b919050565b6005602052816000526040600020602052806000526040600020600091509150505481565b6040518060800160405280600081526020016000815260200160608152602001606081525090565b6000604051905090565b600080fd5b600080fd5b6000819050919050565b61131c81611309565b811461132757600080fd5b50565b60008135905061133981611313565b92915050565b60008060408385031215611356576113556112ff565b5b60006113648582860161132a565b92505060206113758582860161132a565b9150509250929050565b61138881611309565b82525050565b60006020820190506113a3600083018461137f565b92915050565b6000602082840312156113bf576113be6112ff565b5b60006113cd8482850161132a565b91505092915050565b600081519050919050565b600082825260208201905092915050565b6000819050602082019050919050565b61140b81611309565b82525050565b600081519050919050565b600082825260208201905092915050565b60005b8381101561144b578082015181840152602081019050611430565b60008484015250505050565b6000601f19601f8301169050919050565b600061147382611411565b61147d818561141c565b935061148d81856020860161142d565b61149681611457565b840191505092915050565b60006080830160008301516114b96000860182611402565b5060208301516114cc6020860182611402565b50604083015184820360408601526114e48282611468565b915050606083015184820360608601526114fe8282611468565b9150508091505092915050565b600061151783836114a1565b905092915050565b6000602082019050919050565b6000611537826113d6565b61154181856113e1565b935083602082028501611553856113f2565b8060005b8581101561158f5784840389528151611570858261150b565b945061157b8361151f565b925060208a01995050600181019050611557565b50829750879550505050505092915050565b600060208201905081810360008301526115bb818461152c565b905092915050565b600073ffffffffffffffffffffffffffffffffffffffff82169050919050565b60006115ee826115c3565b9050919050565b6115fe816115e3565b811461160957600080fd5b50565b60008135905061161b816115f5565b92915050565b60008060408385031215611638576116376112ff565b5b60006116468582860161132a565b92505060206116578582860161160c565b9150509250929050565b600082825260208201905092915050565b600061167d82611411565b6116878185611661565b935061169781856020860161142d565b6116a081611457565b840191505092915050565b6116b4816115e3565b82525050565b600060a0820190506116cf600083018861137f565b81810360208301526116e18187611672565b905081810360408301526116f58186611672565b9050611704606083018561137f565b61171160808301846116ab565b9695505050505050565b600080fd5b600080fd5b7f4e487b7100000000000000000000000000000000000000000000000000000000600052604160045260246000fd5b61175d82611457565b810181811067ffffffffffffffff8211171561177c5761177b611725565b5b80604052505050565b600061178f6112f5565b905061179b8282611754565b919050565b600067ffffffffffffffff8211156117bb576117ba611725565b5b6117c482611457565b9050602081019050919050565b82818337600083830152505050565b60006117f36117ee846117a0565b611785565b90508281526020810184848401111561180f5761180e611720565b5b61181a8482856117d1565b509392505050565b600082601f8301126118375761183661171b565b5b81356118478482602086016117e0565b91505092915050565b600080600060608486031215611869576118686112ff565b5b600084013567ffffffffffffffff81111561188757611886611304565b5b61189386828701611822565b935050602084013567ffffffffffffffff8111156118b4576118b3611304565b5b6118c086828701611822565b92505060406118d18682870161132a565b9150509250925092565b6000806000606084860312156118f4576118f36112ff565b5b60006119028682870161132a565b93505060206119138682870161132a565b925050604084013567ffffffffffffffff81111561193457611933611304565b5b61194086828701611822565b9150509250925092565b600080600060608486031215611963576119626112ff565b5b60006119718682870161132a565b935050602084013567ffffffffffffffff81111561199257611991611304565b5b61199e86828701611822565b925050604084013567ffffffffffffffff8111156119bf576119be611304565b5b6119cb86828701611822565b9150509250925092565b600060208201905081810360008301526119ef8184611672565b905092915050565b60008060408385031215611a0e57611a0d6112ff565b5b6000611a1c8582860161160c565b9250506020611a2d8582860161132a565b9150509250929050565b7f436f6e747261637473206e6f7420616c6c6f7765640000000000000000000000600082015250565b6000611a6d601583611661565b9150611a7882611a37565b602082019050919050565b60006020820190508181036000830152611a9c81611a60565b9050919050565b7f4e487b7100000000000000000000000000000000000000000000000000000000600052603260045260246000fd5b7f4e487b7100000000000000000000000000000000000000000000000000000000600052602260045260246000fd5b60006002820490506001821680611b1957607f821691505b602082108103611b2c57611b2b611ad2565b5b50919050565b7f4f7261636c6520646f6573206e6f742065786973740000000000000000000000600082015250565b6000611b68601583611661565b9150611b7382611b32565b602082019050919050565b60006020820190508181036000830152611b9781611b5b565b9050919050565b7f496e636f727265637420737562736372697074696f6e20707269636500000000600082015250565b6000611bd4601c83611661565b9150611bdf82611b9e565b602082019050919050565b60006020820190508181036000830152611c0381611bc7565b9050919050565b7f4e487b7100000000000000000000000000000000000000000000000000000000600052601160045260246000fd5b6000611c4482611309565b9150611c4f83611309565b9250828201905080821115611c6757611c66611c0a565b5b92915050565b600081905092915050565b50565b6000611c88600083611c6d565b9150611c9382611c78565b600082019050919050565b6000611ca982611c7b565b9150819050919050565b7f5472616e73666572206661696c65640000000000000000000000000000000000600082015250565b6000611ce9600f83611661565b9150611cf482611cb3565b602082019050919050565b60006020820190508181036000830152611d1881611cdc565b9050919050565b7f4f7261636c65206e616d65206973207265717569726564000000000000000000600082015250565b6000611d55601783611661565b9150611d6082611d1f565b602082019050919050565b60006020820190508181036000830152611d8481611d48565b9050919050565b7f4f7261636c65206465736372697074696f6e2069732072657175697265640000600082015250565b6000611dc1601e83611661565b9150611dcc82611d8b565b602082019050919050565b60006020820190508181036000830152611df081611db4565b9050919050565b7f537562736372697074696f6e207072696365206d75737420626520677265617460008201527f6572207468616e20300000000000000000000000000000000000000000000000602082015250565b6000611e53602983611661565b9150611e5e82611df7565b604082019050919050565b60006020820190508181036000830152611e8281611e46565b9050919050565b6000611e9482611309565b91507fffffffffffffffffffffffffffffffffffffffffffffffffffffffffffffffff8203611ec657611ec5611c0a565b5b600182019050919050565b60008190508160005260206000209050919050565b60006020601f8301049050919050565b600082821b905092915050565b600060088302611f337fffffffffffffffffffffffffffffffffffffffffffffffffffffffffffffffff82611ef6565b611f3d8683611ef6565b95508019841693508086168417925050509392505050565b6000819050919050565b6000611f7a611f75611f7084611309565b611f55565b611309565b9050919050565b6000819050919050565b611f9483611f5f565b611fa8611fa082611f81565b848454611f03565b825550505050565b600090565b611fbd611fb0565b611fc8818484611f8b565b505050565b5b81811015611fec57611fe1600082611fb5565b600181019050611fce565b5050565b601f8211156120315761200281611ed1565b61200b84611ee6565b8101602085101561201a578190505b61202e61202685611ee6565b830182611fcd565b50505b505050565b600082821c905092915050565b600061205460001984600802612036565b1980831691505092915050565b600061206d8383612043565b9150826002028217905092915050565b61208682611411565b67ffffffffffffffff81111561209f5761209e611725565b5b6120a98254611b01565b6120b4828285611ff0565b600060209050601f8311600181146120e757600084156120d5578287015190505b6120df8582612061565b865550612147565b601f1984166120f586611ed1565b60005b8281101561211d578489015182556001820191506020850194506020810190506120f8565b8683101561213a5784890151612136601f891682612043565b8355505b6001600288020188555050505b505050505050565b600060608201905081810360008301526121698186611672565b9050818103602083015261217d8185611672565b905061218c604083018461137f565b949350505050565b7f4e6f7420746865206f7261636c65206f776e6572000000000000000000000000600082015250565b60006121ca601483611661565b91506121d582612194565b602082019050919050565b600060208201905081810360008301526121f9816121bd565b9050919050565b7f5175657374696f6e20646f6573206e6f742062656c6f6e6720746f207468697360008201527f206f7261636c6500000000000000000000000000000000000000000000000000602082015250565b600061225c602783611661565b915061226782612200565b604082019050919050565b6000602082019050818103600083015261228b8161224f565b9050919050565b6000815461229f81611b01565b6122a98186611661565b945060018216600081146122c457600181146122da5761230d565b60ff19831686528115156020028601935061230d565b6122e385611ed1565b60005b83811015612305578154818901526001820191506020810190506122e6565b808801955050505b50505092915050565b600060408201905081810360008301526123308185612292565b905081810360208301526123448184611672565b90509392505050565b7f5175657374696f6e206973207265717569726564000000000000000000000000600082015250565b6000612383601483611661565b915061238e8261234d565b602082019050919050565b600060208201905081810360008301526123b281612376565b9050919050565b600060408201905081810360008301526123d38185611672565b905081810360208301526123e78184611672565b90509392505050565b7f537562736372697074696f6e207265717569726564206f722065787069726564600082015250565b6000612426602083611661565b9150612431826123f0565b602082019050919050565b6000602082019050818103600083015261245581612419565b905091905056fea2646970667358221220a44d3b17b3300c20ca8cbef3cca3bd46db0b23d23c29c93d008b103dcfe7d49964736f6c634300081c0033",
  "linkReferences": {},
  "deployedLinkReferences": {}
}